:100000000C9468000C9490000C9490000C94900058
:100010000C9490000C9490000C9490000C94900020
:100020000C9490000C9490000C9490000C94900010
:100030000C9490000C9490000C9490000C94900000
:100040000C9482030C9490000C9450030C942A039B
:100050000C9490000C9490000C9490000C949000E0
:100060000C9490000C949000005EBCE2613FDD8334
:10007000C29C7E20A3FD1F41009D23BE46DB65F888
:100080008C11AF32CA57E974000000002500280027
:100090002B0000000000240027002A0000000000C0
:1000A00023002600290004040404040404040202BA
:1000B00002020202030303030303010204081020E7
:1000C0004080010204081020010204081020CC0323
:1000D00011241FBECFEFD8E0DEBFCDBF11E0A0E0FE
:1000E000B1E0ECEAF1E102C005900D92AC37B10746
:1000F000D9F722E0ACE7B1E001C01D92A033B2070E
:10010000E1F710E0C8E6D0E004C02197FE010E94AC
:10011000CE08C736D107C9F70E945D040C94D408F5
:100120000C94000080912202E0912302F0912402BD
:10013000F8949181982B91832281382F3095232335
:100140002283A7E0B0E01197F1F791819323918387
:10015000A3E2B0E01197F1F790817894EFECF0E032
:100160003197F1F7982381E009F480E008959091A8
:100170002202E0912302F0912402292F209580FF92
:1001800014C0F8948281822382838181892B8183A8
:10019000A3E2B0E01197F1F78281982B92837894D3
:1001A00087ED90E00197F1F70895F894828182231A
:1001B00082838181892B8183AFEFB0E01197F1F7C2
:1001C0008281982B928378948FE090E0EBCFFF921E
:1001D0000F931F93CF93DF93F82E062FC8E0D0E044
:1001E00011E081E09F2D912309F480E00E94B70087
:1001F000110F2197B1F7011113C0F894E091230278
:10020000F09124029181809122028095982391831C
:10021000E0912302F09124029281892382837894D1
:10022000DF91CF911F910F91FF9008950F931F932E
:10023000CF93DF938C0160E085E50E94E700E80141
:10024000085F1F4F60E089910E94E700C017D10747
:10025000C9F7DF91CF911F910F91089580912202EC
:10026000E0912302F0912402F8949181282F2095A7
:100270009223918378943DE743E050E0315029F197
:10028000DA011197F1F790819823C1F3F8949281E4
:10029000922392839181982B91837894ABE7B7E076
:1002A0001197F1F7F894918192239183A3E1B1E042
:1002B0001197F1F79081982381E009F080E078941C
:1002C000E3E6F6E03197F1F7089580E00895AF9204
:1002D000BF92CF92DF92EF92FF920F931F93CF9333
:1002E000DF936C017B018B01040F151FEB015E0195
:1002F000AE18BF08C017D10759F06991D601ED912A
:10030000FC910190F081E02DC6010995892B79F7C8
:10031000C501DF91CF911F910F91FF90EF90DF907A
:10032000CF90BF90AF900895FC01538D448D252F41
:1003300030E0842F90E0821B930B541710F0CF967F
:10034000089501970895FC01918D828D981761F0B1
:10035000A28DAE0FBF2FB11D5D968C91928D9F5FC8
:100360009F73928F90E008958FEF9FEF0895FC01A7
:10037000918D828D981731F0828DE80FF11D858D5A
:1003800090E008958FEF9FEF0895FC01918D228DED
:10039000892F90E0805C9F4F821B91098F73992772
:1003A000089585E891E00E94C50121E0892B09F4B8
:1003B00020E0822F089580E090E0892B29F00E94B0
:1003C000D10181110C9400000895FC01A48DA80FA7
:1003D000B92FB11DA35ABF4F2C91848D90E0019687
:1003E0008F739927848FA689B7892C93A089B189A7
:1003F0008C91837080648C93938D848D981306C048
:100400000288F389E02D80818F7D80830895EF92AB
:10041000FF920F931F93CF93DF93EC0181E0888FBE
:100420009B8D8C8D98131AC0E889F989808185FF8E
:1004300015C09FB7F894EE89FF896083E889F98930
:1004400080818370806480839FBF81E090E0DF9132
:10045000CF911F910F91FF90EF900895F62E0B8D85
:1004600010E00F5F1F4F0F731127E02E8C8D8E1140
:100470000CC00FB607FCFACFE889F989808185FFA7
:10048000F5CFCE010E94E501F1CFEB8DEC0FFD2FF2
:10049000F11DE35AFF4FF0829FB7F8940B8FEA8962
:1004A000FB8980818062CFCFCF93DF93EC01888D71
:1004B0008823B9F0AA89BB89E889F9898C9185FDDF
:1004C00003C0808186FD0DC00FB607FCF7CF8C916D
:1004D00085FFF2CF808185FFEDCFCE010E94E5013F
:1004E000E9CFDF91CF9108953FB7F89480918101D2
:1004F00090918201A0918301B091840126B5A89BBF
:1005000005C02F3F19F00196A11DB11D3FBFBA2FA5
:10051000A92F982F8827BC01CD01620F711D811D65
:10052000911D42E0660F771F881F991F4A95D1F7EA
:1005300008958F929F92AF92BF92CF92DF92EF92E7
:10054000FF924B015C010E9474026B017C010E94CE
:1005500074026C197D098E099F09683E73408105FC
:100560009105A8F321E0821A9108A108B10888EE4C
:10057000C80E83E0D81EE11CF11C81149104A10473
:10058000B10429F7FF90EF90DF90CF90BF90AF902C
:100590009F908F900895FC0101900020E9F731971A
:1005A000AF01481B590BBC0185E891E00C94670131
:1005B0008F929F92AF92BF920F931F93CF93DF932F
:1005C000CDB7DEB7A1970FB6F894DEBF0FBECDBF93
:1005D00019A2423008F44AE08E010F5D1F4F842EAD
:1005E000912CB12CA12CA50194010E94AC08E62FFE
:1005F000B901CA01EA30F4F4E05DD801EE938D014F
:10060000232B242B252B79F790E080E0109719F00D
:10061000CD010E94CB02A1960FB6F894DEBF0FBEAB
:10062000CDBFDF91CF911F910F91BF90AF909F9061
:100630008F900895E95CE1CFCF93DF930E94CB02C6
:10064000EC0182E191E00E94CB028C0F9D1FDF91B3
:10065000CF9108951F920F920FB60F9211242F93EE
:100660003F934F935F936F937F938F939F93AF933A
:10067000BF93EF93FF9385E891E00E94E501FF911E
:10068000EF91BF91AF919F918F917F916F915F910A
:100690004F913F912F910F900FBE0F901F90189583
:1006A0001F920F920FB60F9211242F938F939F9347
:1006B000EF93FF93E0919501F09196018081E09195
:1006C0009B01F0919C0182FD1BC0908180919E0155
:1006D0008F5F8F7320919F01821741F0E0919E01FF
:1006E000F0E0EB57FE4F958F80939E01FF91EF91C5
:1006F0009F918F912F910F900FBE0F901F90189583
:100700008081F4CF1F920F920FB60F9211242F9376
:100710003F938F939F93AF93BF9380917D0190916F
:100720007E01A0917F01B091800130917C0123E096
:10073000230F2D3758F50196A11DB11D20937C0183
:1007400080937D0190937E01A0937F01B0938001FF
:100750008091810190918201A0918301B0918401E7
:100760000196A11DB11D8093810190938201A093F8
:100770008301B0938401BF91AF919F918F913F917D
:100780002F910F900FBE0F901F90189526E8230F02
:100790000296A11DB11DD2CFCF93DF931092880195
:1007A0001092870188EE93E0A0E0B0E08093890189
:1007B00090938A01A0938B01B0938C0184E091E027
:1007C000909386018093850185EC90E0909392014F
:1007D0008093910184EC90E0909394018093930135
:1007E00080EC90E0909396018093950181EC90E0ED
:1007F000909398018093970182EC90E090939A01F6
:100800008093990186EC90E090939C0180939B01EA
:1008100010929E0110929F011092A0011092A101CE
:1008200044EC50E0FA01649180EB90E0FC012491EB
:100830002223C1F030E0220F331FF901EE56FF4FA3
:10084000A591B491F901E857FF4FC591D4917FB7B5
:10085000F8943C91262F209532233C933881232312
:1008600028837FBFFA01449140932202FC018491C6
:10087000E82FF0E0EE0FFF1FE456FF4F85919491B3
:10088000909324028093230210922D0210922F0243
:1008900010922E0210922C0210922B0210922A0219
:1008A000109229021092280210922702109226021A
:1008B00010922502DF91CF910895CF93DF93CDB7AA
:1008C000DEB763970FB6F894DEBF0FBECDBF789446
:1008D00084B5826084BD84B5816084BD85B5826045
:1008E00085BD85B5816085BD80916E0081608093F6
:1008F0006E0010928100809181008260809381005F
:10090000809181008160809381008091800081606E
:10091000809380008091B10084608093B1008091C9
:10092000B00081608093B00080917A0084608093F1
:100930007A0080917A00826080937A0080917A00B8
:10094000816080937A0080917A00806880937A0039
:100950001092C100E0919501F091960182E08083B0
:10096000E0919101F09192011082E0919301F09158
:1009700094018FEC808310929D01E0919901F09198
:100980009A0186E08083E0919701F091980180813F
:1009900080618083E0919701F09198018081886067
:1009A0008083E0919701F091980180818068808335
:1009B000E0919701F091980180818F7D80831E01E5
:1009C00022E1220E311CCE010A969B8B8A8B00E01D
:1009D00010E080912F02811127C00E942E018823F0
:1009E00019F160E080EF0E94E700EE24E394C12C4F
:1009F000B12CFF24F3940E949200D82E0E94920002
:100A000091E0D91239C0813009F056C080E48F15C9
:100A100058F4B0922D02B11003C091E090932F02D0
:100A20008091250281115FC010922D0210922F0239
:100A300010922E0210922C0210922B0210922A0277
:100A40001092290210922802109227021092260278
:100A5000109225026AEF70E080E090E00E94990217
:100A60000115110509F4B5CF0E94D101882309F4BD
:100A7000B0CF0E940000ADCFEC2DF0E0D81212C034
:100A800080912D02F816B0F4DF01AE5DBD4F1396D4
:100A90008C918E2189F4D12C28E02F1510F0F09242
:100AA0002E02BF2CEE5DFD4F83819E2D90958923F4
:100AB00083830BC08F11EFCFEC2DF0E0EE5DFD4F87
:100AC00083818E298383DD24D3948D2D0E94B700EA
:100AD000F394EE0C19F4C394EE24E39437E03C1540
:100AE00008F089CF93CF85E292E0DE011A96AD013E
:100AF0007D01FC012191CF01FA012193AF01E215A3
:100B0000F305B9F798E0E0E0915089F08D918E27D8
:100B1000E82FEF70F0E0E859FF4F2491E82FE295BD
:100B2000EF70F0E0E858FF4FE491E227EDCF8989BC
:100B30008E1729F085E191E00E941C0391CF82E19C
:100B400091E00E94CB028A85823209F490C08832FB
:100B500009F491C0803109F090C087E291E00E94D1
:100B60001C03BB24B3940E942E01C7010E941601EE
:100B700061E084E40E94E70068EE73E080E090E0CA
:100B80000E9499020E942E01C7010E94160160E096
:100B90008EEB0E94E7009E012F5F3F4F790198E0A6
:100BA000C92ED12CA12C992493940E9492008111DA
:100BB000A928990C31E0C31AD108B9F7F701A1921D
:100BC0007F012A893B89E217F30749F769817A8116
:100BD000BB2009F455C083E0660F771F8A95E1F7C3
:100BE0008885803141F48F81ECE0F0E0E81BF10969
:100BF000607F6E0F7F1F072E000C880B990B0E94E1
:100C0000850720E030E040E85DE30E943A086B0190
:100C10007C014B015C0160E375E780E090E00E949D
:100C2000990220E030E040EF52E4C701B6010E9493
:100C30004F0787FF15CF20E030E040E251ECC701BD
:100C4000B6010E94350818160CF00ACFA7019601CC
:100C5000C701B6010E94A708882301F18FE691E041
:100C60000E94CB0282E191E00E94CB02F9CE88E3A0
:100C700091E00E941C03B12C76CF88E491E05CCF18
:100C80008D81807611F4687FB6CF803211F46C7F4D
:100C9000B2CF803409F0AFCF6E7FADCF26013701E0
:100CA000E89477F82FEF3FEF4FE75FE7C301B2011A
:100CB0000E94A70881110DC02FEF3FEF4FE75FE7BC
:100CC000C301B2010E944F0718161CF483E791E09C
:100CD000C7CF2FEF3FEF4FE75FE4C701B6010E9498
:100CE000350818161CF487E791E0BACF2FEF3FEFD5
:100CF0004FE75FECC701B6010E944F0787FDF3CFB6
:100D000020E030E0A901C701B6010E944F0787FF2C
:100D10000BC06DE285E891E00E9407024601570191
:100D2000B7FAB094B7F8B0942AE037ED43EA5BE342
:100D3000C501B4010E94E3064B015C010E94540707
:100D40006B017C010E9483079B01AC01C501B401CA
:100D50000E94E2064B015C014AE0C701B6010E9415
:100D6000D8026EE285E891E00E94070220E030E0C0
:100D700040E251E4C501B4010E943A084B015C0114
:100D80000E9454076B01F12CE12C4AE0C701B60127
:100D90000E94D802C701B6010E9483079B01AC01E3
:100DA000C501B4010E94E20620E030E040E251E4D7
:100DB0000E943A080E94540790E080E04AE00E94B6
:100DC000D80250CF5058BB27AA270E94FA060C948D
:100DD000FB070E94ED0738F00E94F40720F039F479
:100DE0009F3F19F426F40C94EA070EF4E095E7FB14
:100DF0000C94E407E92F0E940C0858F3BA17620715
:100E000073078407950720F079F4A6F50C942E0853
:100E10000EF4E0950B2EBA2FA02D0B01B901900115
:100E20000C01CA01A0011124FF27591B99F0593F59
:100E300050F4503E68F11A16F040A22F232F342FA1
:100E40004427585FF3CF469537952795A795F040EF
:100E50005395C9F77EF41F16BA0B620B730B840B04
:100E6000BAF09150A1F0FF0FBB1F661F771F881FBC
:100E7000C2F70EC0BA0F621F731F841F48F4879514
:100E800077956795B795F7959E3F08F0B0CF939506
:100E9000880F08F09927EE0F9795879508950E947F
:100EA000C00708F481E008950E94140888F09F5755
:100EB00098F0B92F9927B751B0F0E1F0660F771F7E
:100EC000881F991F1AF0BA95C9F714C0B13091F074
:100ED0000E942E08B1E008950C942E08672F782FF9
:100EE0008827B85F39F0B93FCCF386957795679539
:100EF000B395D9F73EF490958095709561957F4FA5
:100F00008F4F9F4F0895E89409C097FB3EF490954A
:100F10008095709561957F4F8F4F9F4F9923A9F0D2
:100F2000F92F96E9BB279395F69587957795679561
:100F3000B795F111F8CFFAF4BB0F11F460FF1BC0A5
:100F40006F5F7F4F8F4F9F4F16C0882311F096E938
:100F500011C0772321F09EE8872F762F05C06623E6
:100F600071F096E8862F70E060E02AF09A95660F9F
:100F7000771F881FDAF7880F9695879597F9089558
:100F8000990F0008550FAA0BE0E8FEEF161617069A
:100F9000E807F907C0F012161306E407F50798F002
:100FA000621B730B840B950B39F40A2661F0232B1B
:100FB000242B252B21F408950A2609F4A140A69597
:100FC0008FEF811D811D089597F99F6780E870E07C
:100FD00060E008959FEF80EC089500240A941616AF
:100FE000170618060906089500240A941216130617
:100FF000140605060895092E0394000C11F48823A5
:1010000052F0BB0F40F4BF2B11F460FF04C06F5FC0
:101010007F4F8F4F9F4F089557FD9058440F551F96
:1010200059F05F3F71F04795880F97FB991F61F06A
:101030009F3F79F087950895121613061406551FE1
:10104000F2CF4695F1DF08C0161617061806991F4D
:10105000F1CF86957105610508940895E894BB2742
:1010600066277727CB0197F908950E94C00708F4F7
:101070008FEF08950E944D080C94FB070E94ED0726
:1010800038F00E94F40720F0952311F00C94E40747
:101090000C94EA0711240C942F080E940C0870F39A
:1010A000959FC1F3950F50E0551F629FF001729F0D
:1010B000BB27F00DB11D639FAA27F00DB11DAA1F1C
:1010C000649F6627B00DA11D661F829F2227B00D69
:1010D000A11D621F739FB00DA11D621F839FA00DF4
:1010E000611D221F749F3327A00D611D231F849F44
:1010F000600D211D822F762F6A2F11249F5750409B
:101100009AF0F1F088234AF0EE0FFF1FBB1F661F15
:10111000771F881F91505040A9F79E3F510580F0DE
:101120000C94E4070C942F085F3FE4F3983ED4F34B
:10113000869577956795B795F795E7959F5FC1F782
:10114000FE2B880F911D9695879597F908950E941B
:10115000C007880B990B0895A1E21A2EAA1BBB1B8E
:10116000FD010DC0AA1FBB1FEE1FFF1FA217B30773
:10117000E407F50720F0A21BB30BE40BF50B661F89
:10118000771F881F991F1A9469F76095709580954D
:1011900090959B01AC01BD01CF010895EE0FFF1F9B
:0C11A0000590F491E02D0994F894FFCF25
:1011AC00000000000702670194015402C501A3016D
:1011BC00B7010D0A00435243206973206E6F7420EF
:1011CC0076616C69642100202043686970203D20A1
:1011DC004453313853323000202043686970203D2D
:1011EC002044533138323200446576696365206996
:1011FC0073206E6F74206120445331387832302064
:10120C0066616D696C79206465766963652E006E24
:0C121C00616E00696E66006F766600006F
:00000001FF
