:100000000C9462000C948A000C948A000C948A0070
:100010000C948A000C948A000C948A000C948A0038
:100020000C948A000C948A000C948A000C948A0028
:100030000C948A000C948A000C948A000C948A0018
:100040000C94DB020C948A000C94A9020C94830299
:100050000C948A000C948A000C948A000C948A00F8
:100060000C948A000C948A000000000024002700F1
:100070002A000000000023002600290000000000E4
:10008000250028002B0004040404040404040202D4
:100090000202020203030303030301020408102007
:1000A0004080010204081020010204081020000012
:1000B0000008000201000003040700000000000027
:1000C0000000C70411241FBECFEFD8E0DEBFCDBFB4
:1000D00011E0A0E0B1E0E6E0FCE002C005900D9286
:1000E000A635B107D9F721E0A6E5B1E001C01D9220
:1000F000AC3FB207E1F710E0C2E6D0E004C02197C0
:10010000FE010E94FB05C136D107C9F70E942503F5
:100110000C9401060C940000AF92BF92CF92DF9234
:10012000EF92FF920F931F93CF93DF936C017B01AC
:100130008B01040F151FEB015E01AE18BF08C0173D
:10014000D10759F06991D601ED91FC910190F081B0
:10015000E02DC6010995892B79F7C501DF91CF9173
:100160001F910F91FF90EF90DF90CF90BF90AF90D5
:100170000895FC01538D448D252F30E0842F90E0AD
:10018000821B930B541710F0CF9608950197089592
:10019000FC01918D828D981761F0A28DAE0FBF2F5B
:1001A000B11D5D968C91928D9F5F9F73928F90E0B1
:1001B00008958FEF9FEF0895FC01918D828D981720
:1001C00031F0828DE80FF11D858D90E008958FEF5D
:1001D0009FEF0895FC01918D228D892F90E0805C26
:1001E0009F4F821B91098F73992708958FE591E0A6
:1001F0000E94EA0021E0892B09F420E0822F089573
:1002000080E090E0892B29F00E94F60081110C9487
:1002100000000895FC01A48DA80FB92FB11DA35AA9
:10022000BF4F2C91848D90E001968F739927848F16
:10023000A689B7892C93A089B1898C918370806439
:100240008C93938D848D981306C00288F389E02DDA
:1002500080818F7D80830895EF92FF920F931F938B
:10026000CF93DF93EC0181E0888F9B8D8C8D981369
:100270001AC0E889F989808185FF15C09FB7F89475
:10028000EE89FF896083E889F989808183708064C1
:1002900080839FBF81E090E0DF91CF911F910F910C
:1002A000FF90EF900895F62E0B8D10E00F5F1F4F1B
:1002B0000F731127E02E8C8D8E110CC00FB607FC2A
:1002C000FACFE889F989808185FFF5CFCE010E94B8
:1002D0000A01F1CFEB8DEC0FFD2FF11DE35AFF4F1B
:1002E000F0829FB7F8940B8FEA89FB898081806246
:1002F000CFCFCF93DF93EC01888D8823B9F0AA8903
:10030000BB89E889F9898C9185FD03C0808186FDD0
:100310000DC00FB607FCF7CF8C9185FFF2CF80811F
:1003200085FFEDCFCE010E940A01E9CFDF91CF9189
:100330000895833081F028F4813099F08230A9F05B
:1003400008958730A9F08830C9F08430B1F48091E5
:1003500080008F7D03C0809180008F778093800024
:10036000089584B58F7784BD089584B58F7DFBCFC4
:100370008091B0008F778093B00008958091B00095
:100380008F7DF9CF1F93CF93DF93EAEBF0E0949149
:10039000E6EAF0E0D491E2E9F0E0C491CC23B9F0D0
:1003A000182F992319F0892F0E949901EC2FF0E062
:1003B000EE0FFF1FE458FF4FA591B4918FB7F8944B
:1003C000EC91111108C0D095DE23DC938FBFDF9133
:1003D000CF911F910895DE2BF8CFCF93DF93E0EB01
:1003E000F0E08491ECE9F0E0D491E8E8F0E0C49129
:1003F000CC23A1F081110E949901EC2FF0E0EE0FC7
:10040000FF1FEE58FF4FA591B491EC91ED2381E0D1
:1004100090E009F480E0DF91CF91089580E090E0D2
:10042000FACF3FB7F8948091570190915801A0916D
:100430005901B0915A0126B5A89B05C02F3F19F06C
:100440000196A11DB11D3FBFBA2FA92F982F882754
:10045000BC01CD01620F711D811D911D42E0660F2F
:10046000771F881F991F4A95D1F708958F929F9201
:10047000AF92BF92CF92DF92EF92FF924B015C015D
:100480000E9411026B017C010E9411026C197D090E
:100490008E099F09683E734081059105A8F321E00C
:1004A000821A9108A108B10888EEC80E83E0D81E10
:1004B000E11CF11C81149104A104B10429F7FF90FF
:1004C000EF90DF90CF90BF90AF909F908F90089566
:1004D000FC0101900020E9F73197AF01481B590B4F
:1004E000BC018FE591E00C948C00CF93DF930E94C8
:1004F0006802EC0186E191E00E9468028C0F9D1F6A
:10050000DF91CF9108951F920F920FB60F92112491
:100510002F933F934F935F936F937F938F939F930B
:10052000AF93BF93EF93FF938FE591E00E940A0191
:10053000FF91EF91BF91AF919F918F917F916F91BB
:100540005F914F913F912F910F900FBE0F901F9091
:1005500018951F920F920FB60F9211242F938F931D
:100560009F93EF93FF93E0916F01F0917001808171
:10057000E0917501F091760182FD1BC09081809120
:1005800078018F5F8F7320917901821741F0E0919C
:100590007801F0E0E15AFE4F958F80937801FF914A
:1005A000EF919F918F912F910F900FBE0F901F9001
:1005B00018958081F4CF1F920F920FB60F921124DD
:1005C0002F933F938F939F93AF93BF9380915B0142
:1005D00090915C01A0915D01B0915E013091560156
:1005E00023E0230F2D3758F50196A11DB11D20934F
:1005F000560180935B0190935C01A0935D01B093E1
:100600005E018091570190915801A0915901B091DC
:100610005A010196A11DB11D809357019093580175
:10062000A0935901B0935A01BF91AF919F918F91BF
:100630003F912F910F900FBE0F901F90189526E8B5
:10064000230F0296A11DB11DD2CFCF93DF93CDB75B
:10065000DEB7A1970FB6F894DEBF0FBECDBF78947A
:1006600084B5826084BD84B5816084BD85B58260B7
:1006700085BD85B5816085BD80916E008160809368
:100680006E001092810080918100826080938100D1
:1006900080918100816080938100809180008160E1
:1006A000809380008091B10084608093B10080913C
:1006B000B00081608093B00080917A008460809364
:1006C0007A0080917A00826080937A0080917A002B
:1006D000816080937A0080917A00806880937A00AC
:1006E0001092C100E0916F01F091700182E080836F
:1006F000E0916B01F0916C011082E0916D01F0913D
:100700006E018FEC808310927701E0917301F0917C
:10071000740186E08083E0917101F0917201808123
:1007200080618083E0917101F09172018081886025
:100730008083E0917101F0917201808180688083F3
:10074000E0917101F091720180818F7D8083E6EAF2
:10075000F0E02491E2E9F0E08491882399F090E0C0
:10076000880F991FFC01E859FF4FA591B491FC0136
:10077000E458FF4F859194918FB7F894EC91E22B58
:10078000EC938FBFECE9F0E02491E8E8F0E084918D
:100790008823C9F090E0880F991FFC01E859FF4FAA
:1007A00045915491FC01E458FF4FA591B4919FB736
:1007B000F894FA013081822F809583238083EC9115
:1007C000E22BEC939FBF80E480937C0080917A00C1
:1007D000806480937A0080917A0086FDFCCF8091BE
:1007E000780060917900762F682F072E000C880B17
:1007F000990B611571058105910511F00E948F0516
:1008000089E191E00E9475028AE0882E912CA12C4A
:10081000B12C90E0292E90E0392E80E00E94C20198
:100820000E94400520EA3FE040E050E00E94980529
:100830006B017C01F8EBCF0EFBE0DF1EE11CF11C2D
:100840008FB7F89440905B0150905C0160905D011F
:1008500070905E018FBF2FB7F89480915B019091EB
:100860005C01A0915D01B0915E012FBF84199509D3
:10087000A609B7098C159D05AE05BF05B0F50E9408
:10088000ED01892B41F784E491E00E94750205E0B7
:1008900010E081E00E94C20164E670E080E090E038
:1008A0000E94360280E00E94C20164E670E080E0AF
:1008B00090E00E9436020150110959F768EE73E08A
:1008C00080E090E00E9436022114310409F4A5CFA3
:1008D0000E94F600882309F4A0CF0E9400009DCF5B
:1008E0008EE391E00E9475024DC081E00E94C2013A
:1008F0008FB7F89440905B0150905C0160905D016F
:1009000070905E018FBF0E94ED010197E1F38FB7F8
:10091000F894C0905B01D0905C01E0905D01F09094
:100920005E018FBFC418D508E608F70880E00E9472
:10093000C201D701C60185569109A109B1098338C1
:100940009340A105B10560F619A28E010F5D1F4FFE
:10095000C701B601A50194010E94CA0569017A0187
:10096000605DF80162938F01C114D104E104F104C8
:1009700079F7309719F0CF010E94680286E191E083
:100980000E94680260ED77E080E090E09BCFEFE5A9
:10099000F1E01382128288EE93E0A0E0B0E084835D
:1009A0009583A683B78388E091E09183808385EC6B
:1009B00090E09587848784EC90E09787868780EC29
:1009C00090E0918B808B81EC90E0938B828B82EC1A
:1009D00090E0958B848B86EC90E0978B868B118EC4
:1009E000128E138E148E08958F929F92AF92BF92A3
:1009F000CF92DF92EF92FF92CF93DF93EC01688169
:100A000079818A819B81611571058105910521F4A8
:100A100064E279ED8BE597E02DE133EF41E050E0C2
:100A20000E94980549015A019B01AC01A7EAB1E473
:100A30000E94B7056B017C01ACEEB4EFA5019401F7
:100A40000E94C505C60ED71EE81EF91EF7FE06C099
:100A500081E0C81AD108E10880E8F80AC882D98282
:100A6000EA82FB82C701B6019F77DF91CF91FF90A9
:100A7000EF90DF90CF90BF90AF909F908F900895B0
:100A80008F929F92AF92BF92CF92DF92EF92FF929E
:100A90006091000170910101809102019091030128
:100AA000611571058105910521F464E279ED8BE50D
:100AB00097E02DE133EF41E050E00E9498054901B5
:100AC0005A019B01AC01A7EAB1E40E94B7056B0192
:100AD0007C01ACEEB4EFA50194010E94C505C60EE1
:100AE000D71EE81EF91EF7FE06C081E0C81AD1081D
:100AF000E10880E8F80AC0920001D0920101E0927A
:100B00000201F0920301C701B6019F77FF90EF90B9
:100B1000DF90CF90BF90AF909F908F90089560939B
:100B200000017093010180930201909303010895E5
:100B3000052E97FB1EF400940E94AF0557FD07D0C9
:100B40000E94CA0507FC03D04EF40C94AF055095E3
:100B50004095309521953F4F4F4F5F4F08959095A9
:100B60008095709561957F4F8F4F9F4F08950E949C
:100B7000EC05A59F900DB49F900DA49F800D911D35
:100B800011240895B7FF0C94B7050E94B705821B86
:100B9000930B0895A1E21A2EAA1BBB1BFD010DC0E9
:100BA000AA1FBB1FEE1FFF1FA217B307E407F5071D
:100BB00020F0A21BB30BE40BF50B661F771F881FF9
:100BC000991F1A9469F760957095809590959B018F
:100BD000AC01BD01CF010895A29FB001B39FC00138
:100BE000A39F700D811D1124911DB29F700D811D59
:100BF0001124911D0895EE0FFF1F0590F491E02D33
:060C00000994F894FFCFF7
:100C060001000000000000002C018C00B9007901F1
:100C1600EA00C800DC000D0A002D2D2D2053797343
:100C260074656D2052656164792E2057617463681E
:100C360020746865204C454421202D2D2D004572D9
:100C4600726F72004572726F723A20546F6F204550
:060C560061726C792100BF
:00000001FF
