:100000000C945D000C9485000C9485000C94850084
:100010000C9485000C9485000C9485000C9485004C
:100020000C9485000C9485000C9485000C9485003C
:100030000C9485000C9485000C9485000C9485002C
:100040000C9494020C9485000C9462020C943C0273
:100050000C9485000C9485000C9485000C9485000C
:100060000C9485000C94850000000008000201003B
:100070000003040700000000000000000000000072
:10008000250028002B0000000000240027002A0083
:10009000040404040404040402020202020203032E
:1000A0000303030301020408102040800102040836
:1000B0001020010204081020C10411241FBECFEF3C
:1000C000D8E0DEBFCDBF11E0A0E0B1E0E4ECFDE0A0
:1000D00002C005900D92A634B107D9F721E0A6E43D
:1000E000B1E001C01D92AC3EB207E1F710E0CDE5F2
:1000F000D0E004C02197FE010E94DA06CC35D1077A
:10010000C9F70E94DE020C94E0060C940000AF9246
:10011000BF92CF92DF92EF92FF920F931F93CF93F4
:10012000DF936C017B018B01040F151FEB015E0156
:10013000AE18BF08C017D10759F06991D601ED91EB
:10014000FC910190F081E02DC6010995892B79F78A
:10015000C501DF91CF911F910F91FF90EF90DF903C
:10016000CF90BF90AF900895FC01538D448D252F03
:1001700030E0842F90E0821B930B541710F0CF9641
:10018000089501970895FC01918D828D981761F073
:10019000A28DAE0FBF2FB11D5D968C91928D9F5F8A
:1001A0009F73928F90E008958FEF9FEF0895FC0169
:1001B000918D828D981731F0828DE80FF11D858D1C
:1001C00090E008958FEF9FEF0895FC01918D228DAF
:1001D000892F90E0805C9F4F821B91098F73992734
:1001E00008958FE491E00E94E50021E0892B09F455
:1001F00020E0822F089580E090E0892B29F00E9472
:10020000F10081110C9400000895FC01A48DA80F49
:10021000B92FB11DA35ABF4F2C91848D90E0019648
:100220008F739927848FA689B7892C93A089B18968
:100230008C91837080648C93938D848D981306C009
:100240000288F389E02D80818F7D80830895EF926D
:10025000FF920F931F93CF93DF93EC0181E0888F80
:100260009B8D8C8D98131AC0E889F989808185FF50
:1002700015C09FB7F894EE89FF896083E889F989F2
:1002800080818370806480839FBF81E090E0DF91F4
:10029000CF911F910F91FF90EF900895F62E0B8D47
:1002A00010E00F5F1F4F0F731127E02E8C8D8E1102
:1002B0000CC00FB607FCFACFE889F989808185FF69
:1002C000F5CFCE010E940501F1CFEB8DEC0FFD2F94
:1002D000F11DE35AFF4FF0829FB7F8940B8FEA8924
:1002E000FB8980818062CFCFCF93DF93EC01888D33
:1002F0008823B9F0AA89BB89E889F9898C9185FDA1
:1003000003C0808186FD0DC00FB607FCF7CF8C912E
:1003100085FFF2CF808185FFEDCFCE010E940501E0
:10032000E9CFDF91CF9108953FB7F89480914B01C9
:1003300090914C01A0914D01B0914E0126B5A89B22
:1003400005C02F3F19F00196A11DB11D3FBFBA2F67
:10035000A92F982F8827BC01CD01620F711D811D27
:10036000911D42E0660F771F881F991F4A95D1F7AC
:1003700008958F929F92AF92BF92CF92DF92EF92A9
:10038000FF924B015C010E9494016B017C010E9471
:1003900094016C197D098E099F09683E734081059F
:1003A0009105A8F321E0821A9108A108B10888EE0E
:1003B000C80E83E0D81EE11CF11C81149104A10435
:1003C000B10429F7FF90EF90DF90CF90BF90AF90EE
:1003D0009F908F900895FC0101900020E9F73197DC
:1003E000AF01481B590BBC018FE491E00C948700CE
:1003F0008F929F92AF92BF920F931F93CF93DF93F1
:10040000CDB7DEB7A1970FB6F894DEBF0FBECDBF54
:1004100019A2423008F44AE08E010F5D1F4F842E6E
:10042000912CB12CA12CA50194010E94B806E62FB5
:10043000B901CA01EA30F4F4E05DD801EE938D0110
:10044000232B242B252B79F790E080E0109719F0CF
:10045000CD010E94EB01A1960FB6F894DEBF0FBE4E
:10046000CDBFDF91CF911F910F91BF90AF909F9023
:100470008F900895E95CE1CF1F920F920FB60F9213
:1004800011242F933F934F935F936F937F938F9399
:100490009F93AF93BF93EF93FF938FE491E00E94FC
:1004A0000501FF91EF91BF91AF919F918F917F9146
:1004B0006F915F914F913F912F910F900FBE0F90D1
:1004C0001F9018951F920F920FB60F9211242F9321
:1004D0008F939F93EF93FF93E0915F01F091600101
:1004E0008081E0916501F091660182FD1BC09081E1
:1004F000809168018F5F8F7320916901821741F0AD
:10050000E0916801F0E0E15BFE4F958F8093680118
:10051000FF91EF919F918F912F910F900FBE0F90B0
:100520001F9018958081F4CF1F920F920FB60F92F3
:1005300011242F933F938F939F93AF93BF938091F9
:10054000470190914801A0914901B0914A01309131
:10055000460123E0230F2D3758F50196A11DB11D4B
:10056000209346018093470190934801A09349014D
:10057000B0934A0180914B0190914C01A0914D01A3
:10058000B0914E010196A11DB11D80934B01909336
:100590004C01A0934D01B0934E01BF91AF919F913B
:1005A0008F913F912F910F900FBE0F901F90189534
:1005B00026E8230F0296A11DB11DD2CF789484B5F1
:1005C000826084BD84B5816084BD85B5826085BD4F
:1005D00085B5816085BD80916E00816080936E00DD
:1005E00010928100809181008260809381008091CF
:1005F0008100816080938100809180008160809380
:1006000080008091B10084608093B1008091B0003F
:1006100081608093B00080917A00846080937A003A
:1006200080917A00826080937A0080917A00816064
:1006300080937A0080917A00806880937A0010928B
:10064000C100E0915F01F091600182E08083E09160
:100650005B01F0915C011082E0915D01F0915E011F
:100660008FEC808310926701E0916301F091640147
:1006700086E08083E0916101F09162018081806178
:100680008083E0916101F0916201808188608083C4
:10069000E0916101F0916201808180688083E09146
:1006A0006101F091620180818F7D808300EB10E019
:1006B000F8012491CCE9D0E0FE018491882399F0DF
:1006C00090E0880F991FFC01EA57FF4FA591B49164
:1006D000FC01E458FF4F859194918FB7F8949C9159
:1006E000292B2C938FBFE4E7F0E08491F8019491DB
:1006F000FE0124912223D9F0882359F0833009F494
:1007000095C008F088C0813009F496C0823009F4A1
:1007100097C0E22FF0E0EE0FFF1FE458FF4FA591C6
:10072000B4918FB7F8942C91922B9C938FBF60E17A
:1007300077E280E090E00E94B901F8010491FE01A7
:10074000C491CC23C1F0D0E0CC0FDD1FFE01EA57ED
:10075000FF4F25913491FE01E458FF4FA591B491CC
:100760009FB7F894F90180810095802380838C9154
:1007700008230C939FBF82E191E00E94EB0187E385
:1007800091E00E94EB0110E4C0E0D0E010937C0007
:1007900080917A00806480937A0080917A0086FD4F
:1007A000FCCF8091780060917900762F682F072E1A
:1007B000000C880B990B0E94910520E030E040EA84
:1007C00050E40E94460620E030E040E85AE30E94F0
:1007D00046066B017C014B015C01AC019B010E9450
:1007E000B3068823D1F18AE391E00E94EB0187E30D
:1007F00091E00E94EB0160ED77E080E090E00E94E4
:10080000B901209719F20E94F100882309F4BECFA4
:100810000E940000BBCF8730B1F08830D1F0843027
:1008200009F077CF809180008F7D03C08091800098
:100830008F77809380006DCF84B58F7784BD69CF2B
:1008400084B58F7DFBCF8091B0008F778093B0000F
:1008500060CF8091B0008F7DF9CF26013701E894F9
:1008600077F82FEF3FEF4FE75FE7C301B2010E9438
:10087000B30681110DC02FEF3FEF4FE75FE7C301D4
:10088000B2010E945B0518161CF48EE391E0ADCF17
:100890002FEF3FEF4FE75FE4C701B6010E9441062B
:1008A00018161CF482E491E0A0CF2FEF3FEF4FE742
:1008B0005FECC701B6010E945B0587FDF3CF20E026
:1008C00030E0A901C701B6010E945B0587FF0BC09C
:1008D0006DE28FE491E00E94270146015701B7FACB
:1008E000B094B7F8B0942AE037ED43EA5BE3C50172
:1008F000B4010E94EF044B015C010E9460056B0192
:100900007C010E948F059B01AC01C501B4010E94CE
:10091000EE044B015C014AE0C701B6010E94F801F8
:100920006EE28FE491E00E94270120E030E040E297
:1009300051E4C501B4010E9446064B015C010E94CE
:1009400060056B01F12CE12C4AE0C701B6010E9461
:10095000F801C701B6010E948F059B01AC01C501DA
:10096000B4010E94EE0420E030E040E251E40E9435
:1009700046060E94600590E080E04AE00E94F8018F
:1009800036CFEFE4F1E01382128288EE93E0A0E02C
:10099000B0E084839583A683B78384E091E091835C
:1009A000808385EC90E09587848784EC90E097873E
:1009B000868780EC90E0918B808B81EC90E0938B2C
:1009C000828B82EC90E0958B848B86EC90E0978B09
:1009D000868B118E128E138E148E08955058BB275D
:1009E000AA270E9406050C9407060E94F90538F014
:1009F0000E94000620F039F49F3F19F426F40C946D
:100A0000F6050EF4E095E7FB0C94F005E92F0E9443
:100A1000180658F3BA17620773078407950720F082
:100A200079F4A6F50C943A060EF4E0950B2EBA2F45
:100A3000A02D0B01B90190010C01CA01A0011124E4
:100A4000FF27591B99F0593F50F4503E68F11A1690
:100A5000F040A22F232F342F4427585FF3CF469521
:100A600037952795A795F0405395C9F77EF41F1643
:100A7000BA0B620B730B840BBAF09150A1F0FF0F0D
:100A8000BB1F661F771F881FC2F70EC0BA0F621FF9
:100A9000731F841F48F4879577956795B795F795E9
:100AA0009E3F08F0B0CF9395880F08F09927EE0F7E
:100AB0009795879508950E94CC0508F481E00895E4
:100AC0000E94200688F09F5798F0B92F9927B751B8
:100AD000B0F0E1F0660F771F881F991F1AF0BA95E2
:100AE000C9F714C0B13091F00E943A06B1E0089500
:100AF0000C943A06672F782F8827B85F39F0B93FF2
:100B0000CCF3869577956795B395D9F73EF4909594
:100B10008095709561957F4F8F4F9F4F0895E89412
:100B200009C097FB3EF490958095709561957F4F35
:100B30008F4F9F4F9923A9F0F92F96E9BB279395E3
:100B4000F695879577956795B795F111F8CFFAF4F3
:100B5000BB0F11F460FF1BC06F5F7F4F8F4F9F4F24
:100B600016C0882311F096E911C0772321F09EE882
:100B7000872F762F05C0662371F096E8862F70E0E8
:100B800060E02AF09A95660F771F881FDAF7880FC2
:100B90009695879597F90895990F0008550FAA0B18
:100BA000E0E8FEEF16161706E807F907C0F0121680
:100BB0001306E407F50798F0621B730B840B950B83
:100BC00039F40A2661F0232B242B252B21F40895D8
:100BD0000A2609F4A140A6958FEF811D811D089575
:100BE00097F99F6780E870E060E008959FEF80ECE0
:100BF000089500240A941616170618060906089583
:100C000000240A9412161306140605060895092EE8
:100C10000394000C11F4882352F0BB0F40F4BF2B57
:100C200011F460FF04C06F5F7F4F8F4F9F4F089597
:100C300057FD9058440F551F59F05F3F71F047958D
:100C4000880F97FB991F61F09F3F79F08795089572
:100C5000121613061406551FF2CF4695F1DF08C091
:100C6000161617061806991FF1CF869571056105AE
:100C700008940895E894BB2766277727CB0197F956
:100C800008950E94CC0508F48FEF08950E9459063C
:100C90000C9407060E94F90538F00E94000620F027
:100CA000952311F00C94F0050C94F60511240C9486
:100CB0003B060E94180670F3959FC1F3950F50E014
:100CC000551F629FF001729FBB27F00DB11D639FFE
:100CD000AA27F00DB11DAA1F649F6627B00DA11DA4
:100CE000661F829F2227B00DA11D621F739FB00D4A
:100CF000A11D621F839FA00D611D221F749F3327BA
:100D0000A00D611D231F849F600D211D822F762F52
:100D10006A2F11249F5750409AF0F1F088234AF02F
:100D2000EE0FFF1FBB1F661F771F881F915050409B
:100D3000A9F79E3F510580F00C94F0050C943B06FA
:100D40005F3FE4F3983ED4F3869577956795B79522
:100D5000F795E7959F5FC1F7FE2B880F911D96953C
:100D6000879597F908950E94CC05880B990B0895F3
:100D7000A1E21A2EAA1BBB1BFD010DC0AA1FBB1F9F
:100D8000EE1FFF1FA217B307E407F50720F0A21B11
:100D9000B30BE40BF50B661F771F881F991F1A947E
:100DA00069F760957095809590959B01AC01BD01A8
:100DB000CF010895EE0FFF1F0590F491E02D0994E7
:040DC000F894FFCFD5
:100DC4000000000027018700B4007401E500C3009F
:100DD400D70044454255473A203130306B205243C6
:100DE4002044697363686172676520537461727427
:100DF400696E672E2E2E000D0A006E616E00696EFC
:060E040066006F76660037
:00000001FF
