:020000040000FA
:100000000C9462000C948A000C948A000C948A0070
:100010000C948A000C948A000C948A000C948A0038
:100020000C948A000C948A000C948A000C948A0028
:100030000C948A000C948A000C948A000C948A0018
:100040000C94AA020C948A000C9478020C9452022C
:100050000C948A000C948A000C948A000C948A00F8
:100060000C948A000C948A000000000024002700F1
:100070002A000000000023002600290000000000E4
:10008000250028002B0004040404040404040202D4
:100090000202020203030303030301020408102007
:1000A0004080010204081020010204081020000012
:1000B0000008000201000003040700000000000027
:1000C0000000660411241FBECFEFD8E0DEBFCDBF15
:1000D00011E0A0E0B1E0E4E4FBE002C005900D9285
:1000E000AE33B107D9F721E0AEE3B1E001C01D9214
:1000F000A43EB207E1F710E0C2E6D0E004C02197C9
:10010000FE010E949A05C136D107C9F70E94F40288
:100110000C94A0050C940000AF92BF92CF92DF9296
:10012000EF92FF920F931F93CF93DF936C017B01AC
:100130008B01040F151FEB015E01AE18BF08C0173D
:10014000D10759F06991D601ED91FC910190F081B0
:10015000E02DC6010995892B79F7C501DF91CF9173
:100160001F910F91FF90EF90DF90CF90BF90AF90D5
:100170000895FC01538D448D252F30E0842F90E0AD
:10018000821B930B541710F0CF9608950197089592
:10019000FC01918D828D981761F0A28DAE0FBF2F5B
:1001A000B11D5D968C91928D9F5F9F73928F90E0B1
:1001B00008958FEF9FEF0895FC01918D828D981720
:1001C00031F0828DE80FF11D858D90E008958FEF5D
:1001D0009FEF0895FC01918D228D892F90E0805C26
:1001E0009F4F821B91098F739927089587E491E0AF
:1001F0000E94EA0021E0892B09F420E0822F089573
:1002000080E090E0892B29F00E94F60081110C9487
:1002100000000895FC01A48DA80FB92FB11DA35AA9
:10022000BF4F2C91848D90E001968F739927848F16
:10023000A689B7892C93A089B1898C918370806439
:100240008C93938D848D981306C00288F389E02DDA
:1002500080818F7D80830895EF92FF920F931F938B
:10026000CF93DF93EC0181E0888F9B8D8C8D981369
:100270001AC0E889F989808185FF15C09FB7F89475
:10028000EE89FF896083E889F989808183708064C1
:1002900080839FBF81E090E0DF91CF911F910F910C
:1002A000FF90EF900895F62E0B8D10E00F5F1F4F1B
:1002B0000F731127E02E8C8D8E110CC00FB607FC2A
:1002C000FACFE889F989808185FFF5CFCE010E94B8
:1002D0000A01F1CFEB8DEC0FFD2FF11DE35AFF4F1B
:1002E000F0829FB7F8940B8FEA89FB898081806246
:1002F000CFCFCF93DF93EC01888D8823B9F0AA8903
:10030000BB89E889F9898C9185FD03C0808186FDD0
:100310000DC00FB607FCF7CF8C9185FFF2CF80811F
:1003200085FFEDCFCE010E940A01E9CFDF91CF9189
:100330000895833081F028F4813099F08230A9F05B
:1003400008958730A9F08830C9F08430B1F48091E5
:1003500080008F7D03C0809180008F778093800024
:10036000089584B58F7784BD089584B58F7DFBCFC4
:100370008091B0008F778093B00008958091B00095
:100380008F7DF9CF1F93CF93DF93EBEBF0E0949148
:10039000E7EAF0E0D491E3E9F0E0C491CC23B9F0CE
:1003A000182F992319F0892F0E949901EC2FF0E062
:1003B000EE0FFF1FE458FF4FA591B4918FB7F8944B
:1003C000EC91111108C0D095DE23DC938FBFDF9133
:1003D000CF911F910895DE2BF8CF3FB7F89480910D
:1003E0003F0190914001A0914101B091420126B599
:1003F000A89B05C02F3F19F00196A11DB11D3FBF5D
:10040000BA2FA92F982F8827BC01CD01620F711D2B
:10041000811D911D42E0660F771F881F991F4A9525
:10042000D1F708958F929F92AF92BF92CF92DF92B1
:10043000EF92FF926B017C010E94ED014B015C0188
:10044000C114D104E104F104B9F00E94ED0168196E
:1004500079098A099B09683E73408105910580F3FB
:1004600021E0C21AD108E108F10888EE880E83E085
:10047000981EA11CB11CE4CFFF90EF90DF90CF90AD
:10048000BF90AF909F908F900895FC010190002045
:10049000E9F73197AF01481B590BBC0187E491E0A4
:1004A0000C948C001F920F920FB60F9211242F9371
:1004B0003F934F935F936F937F938F939F93AF93EC
:1004C000BF93EF93FF9387E491E00E940A01FF91AD
:1004D000EF91BF91AF919F918F917F916F915F91BC
:1004E0004F913F912F910F900FBE0F901F90189535
:1004F0001F920F920FB60F9211242F938F939F93F9
:10050000EF93FF93E0915701F09158018081E091C2
:100510005D01F0915E0182FD1BC0908180916001C0
:100520008F5F8F7320916101821741F0E09160012C
:10053000F0E0E95BFE4F958F80936001FF91EF91B2
:100540009F918F912F910F900FBE0F901F90189534
:100550008081F4CF1F920F920FB60F9211242F9328
:100560003F938F939F93AF93BF938091430190915B
:100570004401A0914501B091460130913E0123E034
:10058000230F2D3758F50196A11DB11D20933E0173
:100590008093430190934401A0934501B093460199
:1005A00080913F0190914001A0914101B0914201A1
:1005B0000196A11DB11D80933F0190934001A0932E
:1005C0004101B0934201BF91AF919F918F913F91B3
:1005D0002F910F900FBE0F901F90189526E8230FB4
:1005E0000296A11DB11DD2CFCF93DF93CDB7DEB759
:1005F000A5970FB6F894DEBF0FBECDBF789484B533
:10060000826084BD84B5816084BD85B5826085BD0E
:1006100085B5816085BD80916E00816080936E009C
:10062000109281008091810082608093810080918E
:10063000810081608093810080918000816080933F
:1006400080008091B10084608093B1008091B000FF
:1006500081608093B00080917A00846080937A00FA
:1006600080917A00826080937A0080917A00816024
:1006700080937A0080917A00806880937A0010924B
:10068000C100E0915701F091580182E08083E09130
:100690005301F09154011082E0915501F0915601FF
:1006A0008FEC808310925F01E0915B01F0915C011F
:1006B00086E08083E0915901F0915A018081806148
:1006C0008083E0915901F0915A0180818860808394
:1006D000E0915901F0915A01808180688083E09116
:1006E0005901F0915A0180818F7D8083E7EAF0E023
:1006F0002491E3E9F0E08491882399F090E0880F59
:10070000991FFC01E859FF4FA591B491FC01E458F1
:10071000FF4F859194918FB7F894EC91E22BEC9375
:100720008FBFECE9F0E02491E8E8F0E084918823C1
:10073000C9F090E0880F991FFC01E859FF4FA5917F
:10074000B491FC01E458FF4F459154919FB7F89440
:100750003C91822F809583238C93DA018C91282BF6
:100760002C939FBF80E480937C0080917A0080640A
:1007700080937A0080917A0086FDFCCF809178008A
:1007800060917900762F682F072E000C880B990B4B
:10079000611571058105910511F00E942E0586E114
:1007A00091E00E9445028BE391E00E94450290EAAD
:1007B000892E9FE0992EA12CB12C2AE0422E512C9B
:1007C000612C712C30E0232E30E0332E80E00E942B
:1007D000C2010E94DF04A50194010E943705605305
:1007E000784F8F4F9F4F0E94120281E00E94C201FA
:1007F0008FB7F89420914301309144014091450115
:10080000509146012AA33BA34CA35DA38FBFE0EB0D
:10081000F0E08491ECE9F0E00491E8E8F0E0149174
:10082000112371F081110E949901E12FF0E0EE0F88
:10083000FF1FEE58FF4FA591B4918C91082339F713
:100840008FB7F894C0904301D0904401E0904501E7
:10085000F09046018FBF2AA13BA14CA15DA1C21A15
:10086000D30AE40AF50A80E00E94C20119A28E01AF
:100870000F5D1F4FC701B601A30192010E946905D8
:1008800069017A01605DD8016E938D01C114D104B4
:10089000E104F10479F7109719F0CD010E944502A7
:1008A0008BE391E00E94450260ED77E080E090E00C
:1008B0000E9412022114310409F488CF0E94F6002C
:1008C000882309F483CF0E94000080CFE7E4F1E0A1
:1008D0001382128288EE93E0A0E0B0E084839583D7
:1008E000A683B78388E091E09183808385EC90E0D4
:1008F0009587848784EC90E09787868780EC90E0EA
:10090000918B808B81EC90E0938B828B82EC90E0DA
:10091000958B848B86EC90E0978B868B118E128E54
:10092000138E148E08958F929F92AF92BF92CF92A2
:10093000DF92EF92FF92CF93DF93EC016881798190
:100940008A819B81611571058105910521F464E21D
:1009500079ED8BE597E02DE133EF41E050E00E9427
:10096000370549015A019B01AC01A7EAB1E40E9495
:1009700056056B017C01ACEEB4EFA50194010E9419
:100980006405C60ED71EE81EF91EF7FE06C081E0FC
:10099000C81AD108E10880E8F80AC882D982EA8238
:1009A000FB82C701B6019F77DF91CF91FF90EF9057
:1009B000DF90CF90BF90AF909F908F9008958F92CF
:1009C0009F92AF92BF92CF92DF92EF92FF9260918F
:1009D0000001709101018091020190910301611564
:1009E00071058105910521F464E279ED8BE597E0CD
:1009F0002DE133EF41E050E00E94370549015A01F3
:100A00009B01AC01A7EAB1E40E9456056B017C0191
:100A1000ACEEB4EFA50194010E946405C60ED71E8A
:100A2000E81EF91EF7FE06C081E0C81AD108E108E9
:100A300080E8F80AC0920001D0920101E092020120
:100A4000F0920301C701B6019F77FF90EF90DF900E
:100A5000CF90BF90AF909F908F90089560930001CA
:100A60007093010180930201909303010895052E74
:100A700097FB1EF400940E944E0557FD07D00E947C
:100A8000690507FC03D04EF40C944E055095409533
:100A9000309521953F4F4F4F5F4F0895909580952A
:100AA000709561957F4F8F4F9F4F08950E948B05E2
:100AB000A59F900DB49F900DA49F800D911D1124B2
:100AC0000895B7FF0C9456050E945605821B930BA0
:100AD0000895A1E21A2EAA1BBB1BFD010DC0AA1F7F
:100AE000BB1FEE1FFF1FA217B307E407F50720F097
:100AF000A21BB30BE40BF50B661F771F881F991F12
:100B00001A9469F760957095809590959B01AC015A
:100B1000BD01CF010895A29FB001B39FC001A39F63
:100B2000700D811D1124911DB29F700D811D112426
:100B3000911D0895EE0FFF1F0590F491E02D09948B
:100B4000F894FFCF01000000000000002C018C0091
:100B5000B9007901EA00C800DC002D2D2D20537961
:100B60007374656D2052656164792E2057617463DA
:100B70006820746865204C454421202D2D2D000DE2
:020B80000A0069
:107E0000112484B714BE81FFF0D085E080938100F7
:107E100082E08093C00088E18093C10086E0809377
:107E2000C20080E18093C4008EE0C9D0259A86E02C
:107E300020E33CEF91E0309385002093840096BBD3
:107E4000B09BFECF1D9AA8958150A9F7CC24DD24C4
:107E500088248394B5E0AB2EA1E19A2EF3E0BF2EE7
:107E6000A2D0813461F49FD0082FAFD0023811F036
:107E7000013811F484E001C083E08DD089C08234E0
:107E800011F484E103C0853419F485E0A6D080C0E4
:107E9000853579F488D0E82EFF2485D0082F10E0AE
:107EA000102F00270E291F29000F111F8ED06801E7
:107EB0006FC0863521F484E090D080E0DECF843638
:107EC00009F040C070D06FD0082F6DD080E0C81688
:107ED00080E7D80618F4F601B7BEE895C0E0D1E017
:107EE00062D089930C17E1F7F0E0CF16F0E7DF06D8
:107EF00018F0F601B7BEE89568D007B600FCFDCFD4
:107F0000A601A0E0B1E02C9130E011968C91119780
:107F100090E0982F8827822B932B1296FA010C0160
:107F200087BEE89511244E5F5F4FF1E0A038BF0790
:107F300051F7F601A7BEE89507B600FCFDCF97BE46
:107F4000E89526C08437B1F42ED02DD0F82E2BD052
:107F50003CD0F601EF2C8F010F5F1F4F84911BD097
:107F6000EA94F801C1F70894C11CD11CFA94CF0C13
:107F7000D11C0EC0853739F428D08EE10CD085E9AC
:107F80000AD08FE07ACF813511F488E018D01DD067
:107F900080E101D065CF982F8091C00085FFFCCF94
:107FA0009093C60008958091C00087FFFCCF809118
:107FB000C00084FD01C0A8958091C6000895E0E648
:107FC000F0E098E1908380830895EDDF803219F02E
:107FD00088E0F5DFFFCF84E1DECF1F93182FE3DFCA
:107FE0001150E9F7F2DF1F91089580E0E8DFEE27F6
:047FF000FF270994CA
:027FFE00040479
:00000001FF
