:020000040000FA
:100000000C9462000C948A000C948A000C948A0070
:100010000C948A000C948A000C948A000C948A0038
:100020000C948A000C948A000C948A000C948A0028
:100030000C948A000C948A000C948A000C948A0018
:100040000C9427040C948A000C94F5030C94CF03B1
:100050000C948A000C948A000C948A000C948A00F8
:100060000C948A000C948A000000000024002700F1
:100070002A0000000000250028002B0000000000DE
:1000800023002600290004040404040404040202DA
:100090000202020203030303030301020408102007
:1000A0004080010204081020010204081020000012
:1000B0000008000201000003040700000000000027
:1000C0000000710411241FBECFEFD8E0DEBFCDBF0A
:1000D00021E0A4E2B1E001C01D92AA3DB207E1F720
:1000E00011E0A0E0B1E0E2E4F2E102C005900D927F
:1000F000A432B107D9F710E0C2E6D0E004C02197DE
:10010000FE010E941909C136D107C9F70E94B70440
:100110000C941F090C940000AF92BF92CF92DF9213
:10012000EF92FF920F931F93CF93DF936C017B01AC
:100130008B01040F151FEB015E01AE18BF08C0173D
:10014000D10759F06991D601ED91FC910190F081B0
:10015000E02DC6010995892B79F7C501DF91CF9173
:100160001F910F91FF90EF90DF90CF90BF90AF90D5
:100170000895FC01538D448D252F30E0842F90E0AD
:10018000821B930B541710F0CF9608950197089592
:10019000FC01918D828D981761F0A28DAE0FBF2F5B
:1001A000B11D5D968C91928D9F5F9F73928F90E0B1
:1001B00008958FEF9FEF0895FC01918D828D981720
:1001C00031F0828DE80FF11D858D90E008958FEF5D
:1001D0009FEF0895FC01918D228D892F90E0805C26
:1001E0009F4F821B91098F739927089587E391E0B0
:1001F0000E94EA0021E0892B09F420E0822F089573
:1002000080E090E0892B29F00E94F60081110C9487
:1002100000000895FC01A48DA80FB92FB11DA35AA9
:10022000BF4F2C91848D90E001968F739927848F16
:10023000A689B7892C93A089B1898C918370806439
:100240008C93938D848D981306C00288F389E02DDA
:1002500080818F7D80830895EF92FF920F931F938B
:10026000CF93DF93EC0181E0888F9B8D8C8D981369
:100270001AC0E889F989808185FF15C09FB7F89475
:10028000EE89FF896083E889F989808183708064C1
:1002900080839FBF81E090E0DF91CF911F910F910C
:1002A000FF90EF900895F62E0B8D10E00F5F1F4F1B
:1002B0000F731127E02E8C8D8E110CC00FB607FC2A
:1002C000FACFE889F989808185FFF5CFCE010E94B8
:1002D0000A01F1CFEB8DEC0FFD2FF11DE35AFF4F1B
:1002E000F0829FB7F8940B8FEA89FB898081806246
:1002F000CFCFCF93DF93EC01888D8823B9F0AA8903
:10030000BB89E889F9898C9185FD03C0808186FDD0
:100310000DC00FB607FCF7CF8C9185FFF2CF80811F
:1003200085FFEDCFCE010E940A01E9CFDF91CF9189
:100330000895833081F028F4813099F08230A9F05B
:1003400008958730A9F08830C9F08430B1F48091E5
:1003500080008F7D03C0809180008F778093800024
:10036000089584B58F7784BD089584B58F7DFBCFC4
:100370008091B0008F778093B00008958091B00095
:100380008F7DF9CFCF93DF93282F30E0F901E2552D
:10039000FF4F8491F901E656FF4FD491F901EA57D6
:1003A000FF4FC491CC23A1F081110E949901EC2F41
:1003B000F0E0EE0FFF1FE458FF4FA591B491EC91D0
:1003C000ED2381E090E009F480E0DF91CF91089582
:1003D00080E090E0FACF1F93CF93DF93282F30E097
:1003E000F901E255FF4F8491F901E656FF4FD49190
:1003F000F901EA57FF4FC491CC23A9F0162F8111C0
:100400000E949901EC2FF0E0EE0FFF1FEE58FF4F16
:10041000A591B4918FB7F894EC91111108C0D095C3
:10042000DE23DC938FBFDF91CF911F910895DE2BE8
:10043000F8CFCF93DF9390E0FC01E656FF4F249175
:100440008A579F4FFC0184918823D1F090E0880F58
:10045000991FFC01E859FF4FA591B491FC01EE589A
:10046000FF4FC591D49161110EC09FB7F8948C9144
:10047000E22FE0958E238C932881E223E8839FBFAF
:10048000DF91CF9108958FB7F894EC91E22BEC9324
:100490008FBFF6CF3FB7F894809125019091260148
:1004A000A0912701B091280126B5A89B05C02F3F38
:1004B00019F00196A11DB11D3FBFBA2FA92F982F8A
:1004C0008827BC01CD01620F711D811D911D42E085
:1004D000660F771F881F991F4A95D1F708958F924D
:1004E0009F92AF92BF92CF92DF92EF92FF926B01F9
:1004F0007C010E944A024B015C01C114D104E10459
:10050000F104B9F00E944A02681979098A099B0925
:10051000683E73408105910580F321E0C21AD1083D
:10052000E108F10888EE880E83E0981EA11CB11C3A
:10053000E4CFFF90EF90DF90CF90BF90AF909F906F
:100540008F900895FC0101900020E9F73197AF01E9
:10055000481B590BBC0187E391E00C948C008F92EF
:100560009F92AF92BF920F931F93CF93DF93CDB71C
:10057000DEB7A1970FB6F894DEBF0FBECDBF19A2AC
:10058000423008F44AE08E010F5D1F4F842E912CFB
:10059000B12CA12CA50194010E94F708E62FB90106
:1005A000CA01EA30F4F4E05DD801EE938D01232B0B
:1005B000242B252B79F790E080E0109719F0CD01DE
:1005C0000E94A202A1960FB6F894DEBF0FBECDBF67
:1005D000DF91CF911F910F91BF90AF909F908F901F
:1005E0000895E95CE1CF4F925F926F927F928F9274
:1005F0009F92AF92BF92CF92DF92EF92FF920F93B2
:100600001F93CF936B017C01742EAC019B010E9460
:10061000F208882399F082E191E0CF911F910F9128
:10062000FF90EF90DF90CF90BF90AF909F908F9012
:100630007F906F905F904F900C94A20246015701FB
:10064000E894B7F82FEF3FEF4FE75FE7C501B4013C
:100650000E94F20881110DC02FEF3FEF4FE75FE7D7
:10066000C501B4010E94BB0618161CF486E191E096
:10067000D4CF2FEF3FEF4FE75FE4C701B6010E94F1
:10068000ED0818161CF48AE191E0C7CF2FEF3FEF79
:100690004FE75FECC701B6010E94BB0687FDF3CFB1
:1006A00020E030E0A901C701B6010E94BB0610E0BE
:1006B00000E087FF0AC06DE287E391E00E942C0111
:1006C0008C01F7FAF094F7F8F094C0E060E070E085
:1006D00080E09FE37C1641F020E030E040E251E40E
:1006E0000E944C08CF5FF6CFA70196010E94E00759
:1006F0002B013C010E94BE084B015C014AE00E94B4
:10070000AF027C01E00EF11ECC23C1F1C501B401A2
:100710000E94C0069B01AC01C301B2010E94DF0729
:100720004B015C016EE287E391E00E942C01E80E30
:10073000F91EC15018F120E030E040E251E4C5015B
:10074000B4010E9421072B013C010E94BE084B010D
:10075000B12CA12C4AE0C501B4010E94AF02E80E01
:10076000F91EC501B4010E94C0069B01AC01C30182
:10077000B2010E94DF074B015C01DBCFC701CF91C3
:100780001F910F91FF90EF90DF90CF90BF90AF90AF
:100790009F908F907F906F905F904F9008951F92E1
:1007A0000F920FB60F9211242F933F934F935F93A5
:1007B0006F937F938F939F93AF93BF93EF93FF9329
:1007C00087E391E00E940A01FF91EF91BF91AF9101
:1007D0009F918F917F916F915F914F913F912F9159
:1007E0000F900FBE0F901F9018951F920F920FB68B
:1007F0000F9211242F938F939F93EF93FF93E09188
:100800004701F09148018081E0914D01F0914E0146
:1008100082FD1BC09081809150018F5F8F7320916A
:100820005101821741F0E0915001F0E0E95CFE4F88
:10083000958F80935001FF91EF919F918F912F9110
:100840000F900FBE0F901F9018958081F4CF1F92CC
:100850000F920FB60F9211242F933F938F939F9374
:10086000AF93BF938091290190912A01A0912B0110
:10087000B0912C013091240123E0230F2D3758F53E
:100880000196A11DB11D209324018093290190930D
:100890002A01A0932B01B0932C0180912501909106
:1008A0002601A0912701B09128010196A11DB11D3B
:1008B0008093250190932601A0932701B0932801EE
:1008C000BF91AF919F918F913F912F910F900FBE4C
:1008D0000F901F90189526E8230F0296A11DB11DB9
:1008E000D2CFCF93DF93E7E3F1E01382128288EE59
:1008F00093E0A0E0B0E084839583A683B78384E08F
:1009000091E09183808385EC90E09587848784ECE7
:1009100090E09787868780EC90E0918B808B81ECCC
:1009200090E0938B828B82EC90E0958B848B86ECAD
:1009300090E0978B868B118E128E138E148EC4EDE1
:10094000D1E082E090E09983888384EF91E0A0E099
:10095000B0E08A839B83AC83BD8361E082E00E9428
:10096000190261E08881DF91CF910C94EB01CF9364
:10097000DF9300D000D01F92CDB7DEB7789484B556
:10098000826084BD84B5816084BD85B5826085BD8B
:1009900085B5816085BD80916E00816080936E0019
:1009A000109281008091810082608093810080910B
:1009B00081008160809381008091800081608093BC
:1009C00080008091B10084608093B1008091B0007C
:1009D00081608093B00080917A00846080937A0077
:1009E00080917A00826080937A0080917A008160A1
:1009F00080937A0080917A00806880937A001092C8
:100A0000C100E0914701F091480182E08083E091CC
:100A10004301F09144011082E0914501F0914601BB
:100A20008FEC808310924F01E0914B01F0914C01CB
:100A300086E08083E0914901F0914A0180818061E4
:100A40008083E0914901F0914A0180818860808330
:100A5000E0914901F0914A01808180688083E091B2
:100A60004901F0914A0180818F7D808361E08DE0B2
:100A70000E94190260ED77E080E090E00E946F0232
:100A80002BE3A22EBB24B3944E0126E0820E911CD0
:100A900033E7632E712C6091D6017091D70180915C
:100AA000D8019091D9010E946F0261E08091D40138
:100AB0000E94190260E08091D4010E94EB0162E182
:100AC00070E080E090E00E946F0261E08091D401CC
:100AD0000E94EB018BE990E00197F1F760E08091D3
:100AE000D4010E9419028FB7F894C0902901D090C8
:100AF0002A01E0902B01F0902C018FBF8091D4014E
:100B00000E94C201019709F0D5C02FB7F8948091D7
:100B1000290190912A01A0912B01B0912C012FBFA6
:100B20008C199D09AE09BF09893E9340A105B10505
:100B300028F310E000E0F12CE12C9DEFC92ED12C20
:100B400061E08DE00E94EB0168EC70E080E090E0F5
:100B50000E946F0260E08DE00E94EB01CD2809F059
:100B600048C024E6E216F1040CF043C00536110536
:100B70000CF03FC0C0902D01D0902E01B701FF0CAA
:100B8000880B990B0E94C2069B01AC016091330156
:100B90007091340180913501909136010E94E007F7
:100BA0006093330170933401809335019093360143
:100BB000B801110F880B990B0E94C2069B01AC0172
:100BC00060912F017091300180913101909132013B
:100BD0000E94E00760932F017093300180933101F0
:100BE000909332018FEFC81AD80AD0922E01C0928A
:100BF0002D0160912D0170912E016C3371050CF463
:100C000046C0072E000C880B990B0E94C2066B0190
:100C10007C01AC019B0160912F01709130018091AA
:100C20003101909132010E944C081B012C01A70157
:100C3000960160913301709134018091350190915A
:100C400036010E944C0842E00E94F3028EE191E0DE
:100C50000E94A20242E0C201B1010E94F30280E2BE
:100C600091E00E94A202109233011092340110927E
:100C700035011092360110922F011092300110921E
:100C800031011092320110922E0110922D0160ED6F
:100C900079E380E090E00E946F02E0E0F0E0EF2B6B
:100CA00009F4F9CE0E94F600882309F4F4CE0E94DC
:100CB0000000F1CE8091D4010E94C2016C01892B09
:100CC00009F037CFC5010197F1F78091D4010E9457
:100CD000C201019709F02DCFC5010197F1F7CE01AF
:100CE00001967C0107E010E0512C8091D4010E9414
:100CF000C201892BD1F3C3010197F1F78091D4018F
:100D00000E94C2018130910531F4002E01C0880F8C
:100D10000A94EAF7582A8091D4010E94C2010197EF
:100D2000D1F30150110908F7F70151927F01FDEF4E
:100D30005F1609F4FECEE814F904A1F6098110E06B
:100D4000EB80F12C4D818A81800F912F911D9C01A8
:100D50002E0D3F1D8C81820F932F911D99274817CF
:100D6000190609F4EDCE10E000E0F12CE12C8EEF35
:100D7000C82ED12CE5CE0E94FD0608F481E008952E
:100D8000E89409C097FB3EF4909580957095619525
:100D90007F4F8F4F9F4F9923A9F0F92F96E9BB27DB
:100DA0009395F695879577956795B795F111F8CF57
:100DB000FAF4BB0F11F460FF1BC06F5F7F4F8F4FC2
:100DC0009F4F16C0882311F096E911C0772321F0B8
:100DD0009EE8872F762F05C0662371F096E8862F50
:100DE00070E060E02AF09A95660F771F881FDAF7A7
:100DF000880F9695879597F90895990F0008550FD4
:100E0000AA0BE0E8FEEF16161706E807F907C0F090
:100E100012161306E407F50798F0621B730B840B98
:100E2000950B39F40A2661F0232B242B252B21F472
:100E300008950A2609F4A140A6958FEF811D811D12
:100E400008950E9434070C94A5070E94970738F074
:100E50000E949E0720F0952311F00C948E070C94AD
:100E6000940711240C94D9070E94B60770F3959F3C
:100E7000C1F3950F50E0551F629FF001729FBB2791
:100E8000F00DB11D639FAA27F00DB11DAA1F649F2D
:100E90006627B00DA11D661F829F2227B00DA11DE0
:100EA000621F739FB00DA11D621F839FA00D611D66
:100EB000221F749F3327A00D611D231F849F600D87
:100EC000211D822F762F6A2F11249F5750409AF0B0
:100ED000F1F088234AF0EE0FFF1FBB1F661F771F3C
:100EE000881F91505040A9F79E3F510580F00C9407
:100EF0008E070C94D9075F3FE4F3983ED4F38695B0
:100F000077956795B795F795E7959F5FC1F7FE2BA6
:100F1000880F911D9695879597F9089597F99F6782
:100F200080E870E060E008959FEF80EC0895002471
:100F30000A941616170618060906089500240A943E
:100F400012161306140605060895092E0394000CC4
:100F500011F4882352F0BB0F40F4BF2B11F460FF53
:100F600004C06F5F7F4F8F4F9F4F089557FD90587C
:100F7000440F551F59F05F3F71F04795880F97FB5D
:100F8000991F61F09F3F79F0879508951216130617
:100F90001406551FF2CF4695F1DF08C01616170646
:100FA0001806991FF1CF869571056105089408957B
:100FB000E894BB2766277727CB0197F90895505807
:100FC000BB27AA270E94F7070C94A5070E94970742
:100FD00038F00E949E0720F039F49F3F19F426F460
:100FE0000C9494070EF4E095E7FB0C948E07E92F20
:100FF0000E94B60758F3BA1762077307840795076C
:1010000020F079F4A6F50C94D8070EF4E0950B2E99
:10101000BA2FA02D0B01B90190010C01CA01A0014A
:101020001124FF27591B99F0593F50F4503E68F1A5
:101030001A16F040A22F232F342F4427585FF3CFE6
:10104000469537952795A795F0405395C9F77EF4B7
:101050001F16BA0B620B730B840BBAF09150A1F000
:10106000FF0FBB1F661F771F881FC2F70EC0BA0F86
:10107000621F731F841F48F4879577956795B7950E
:10108000F7959E3F08F0B0CF9395880F08F0992709
:10109000EE0F9795879508950E9460080C94A50718
:1010A0000E949E0758F00E94970740F029F45F3F86
:1010B00029F00C948E0751110C94D9070C949407C5
:1010C0000E94B60768F39923B1F3552391F3951B5A
:1010D000550BBB27AA2762177307840738F09F5F59
:1010E0005F4F220F331F441FAA1FA9F335D00E2EC6
:1010F0003AF0E0E832D091505040E695001CCAF733
:101100002BD0FE2F29D0660F771F881FBB1F2617F5
:1011100037074807AB07B0E809F0BB0B802DBF01CC
:10112000FF2793585F4F3AF09E3F510578F00C949B
:101130008E070C94D9075F3FE4F3983ED4F386956D
:1011400077956795B795F7959F5FC9F7880F911DBC
:101150009695879597F90895E1E0660F771F881FA8
:10116000BB1F621773078407BA0720F0621B730B5B
:10117000840BBA0BEE1F88F7E09508950E94BE0716
:1011800088F09F5798F0B92F9927B751B0F0E1F048
:10119000660F771F881F991F1AF0BA95C9F714C0F8
:1011A000B13091F00E94D807B1E008950C94D807AF
:1011B000672F782F8827B85F39F0B93FCCF3869531
:1011C00077956795B395D9F73EF49095809570958E
:1011D00061957F4F8F4F9F4F08950E94FD0608F441
:1011E0008FEF08950E94FD06880B990B0895A1E2E8
:1011F0001A2EAA1BBB1BFD010DC0AA1FBB1FEE1F91
:10120000FF1FA217B307E407F50720F0A21BB30BDB
:10121000E40BF50B661F771F881F991F1A9469F757
:1012200060957095809590959B01AC01BD01CF01B3
:101230000895EE0FFF1F0590F491E02D0994F894A6
:10124000FFCF000000002C018C00B9007901EA00FA
:10125000C800DC006E616E00696E66006F76660025
:061260002C000D0A000045
:107E0000112484B714BE81FFF0D085E080938100F7
:107E100082E08093C00088E18093C10086E0809377
:107E2000C20080E18093C4008EE0C9D0259A86E02C
:107E300020E33CEF91E0309385002093840096BBD3
:107E4000B09BFECF1D9AA8958150A9F7CC24DD24C4
:107E500088248394B5E0AB2EA1E19A2EF3E0BF2EE7
:107E6000A2D0813461F49FD0082FAFD0023811F036
:107E7000013811F484E001C083E08DD089C08234E0
:107E800011F484E103C0853419F485E0A6D080C0E4
:107E9000853579F488D0E82EFF2485D0082F10E0AE
:107EA000102F00270E291F29000F111F8ED06801E7
:107EB0006FC0863521F484E090D080E0DECF843638
:107EC00009F040C070D06FD0082F6DD080E0C81688
:107ED00080E7D80618F4F601B7BEE895C0E0D1E017
:107EE00062D089930C17E1F7F0E0CF16F0E7DF06D8
:107EF00018F0F601B7BEE89568D007B600FCFDCFD4
:107F0000A601A0E0B1E02C9130E011968C91119780
:107F100090E0982F8827822B932B1296FA010C0160
:107F200087BEE89511244E5F5F4FF1E0A038BF0790
:107F300051F7F601A7BEE89507B600FCFDCF97BE46
:107F4000E89526C08437B1F42ED02DD0F82E2BD052
:107F50003CD0F601EF2C8F010F5F1F4F84911BD097
:107F6000EA94F801C1F70894C11CD11CFA94CF0C13
:107F7000D11C0EC0853739F428D08EE10CD085E9AC
:107F80000AD08FE07ACF813511F488E018D01DD067
:107F900080E101D065CF982F8091C00085FFFCCF94
:107FA0009093C60008958091C00087FFFCCF809118
:107FB000C00084FD01C0A8958091C6000895E0E648
:107FC000F0E098E1908380830895EDDF803219F02E
:107FD00088E0F5DFFFCF84E1DECF1F93182FE3DFCA
:107FE0001150E9F7F2DF1F91089580E0E8DFEE27F6
:047FF000FF270994CA
:027FFE00040479
:00000001FF
