:100000000C9462000C948A000C948A000C948A0070
:100010000C948A000C948A000C948A000C948A0038
:100020000C948A000C948A000C948A000C948A0028
:100030000C948A000C948A000C948A000C948A0018
:100040000C94B6030C948A000C9484030C945E0305
:100050000C948A000C948A000C948A000C948A00F8
:100060000C948A000C948A000000000024002700F1
:100070002A0000000000250028002B0000000000DE
:1000800023002600290004040404040404040202DA
:100090000202020203030303030301020408102007
:1000A0004080010204081020010204081020000012
:1000B0000008000201000003040700000000000027
:1000C0000000000411241FBECFEFD8E0DEBFCDBF7B
:1000D00022E0AAE8B1E001C01D92AE33B207E1F719
:1000E00011E0A0E0B1E0E6EDF0E102C005900D9274
:1000F000AA38B107D9F710E0C2E6D0E004C02197D2
:10010000FE010E947106C136D107C9F70E9446045C
:100110000C9469080C940000AF92BF92CF92DF92CA
:10012000EF92FF920F931F93CF93DF936C017B01AC
:100130008B01040F151FEB015E01AE18BF08C0173D
:10014000D10759F06991D601ED91FC910190F081B0
:10015000E02DC6010995892B79F7C501DF91CF9173
:100160001F910F91FF90EF90DF90CF90BF90AF90D5
:100170000895FC01538D448D252F30E0842F90E0AD
:10018000821B930B541710F0CF9608950197089592
:10019000FC01918D828D981761F0A28DAE0FBF2F5B
:1001A000B11D5D968C91928D9F5F9F73928F90E0B1
:1001B00008958FEF9FEF0895FC01918D828D981720
:1001C00031F0828DE80FF11D858D90E008958FEF5D
:1001D0009FEF0895FC01918D228D892F90E0805C26
:1001E0009F4F821B91098F739927089587E991E0AA
:1001F0000E94EA0021E0892B09F420E0822F089573
:1002000080E090E0892B29F00E94F60081110C9487
:1002100000000895FC01A48DA80FB92FB11DA35AA9
:10022000BF4F2C91848D90E001968F739927848F16
:10023000A689B7892C93A089B1898C918370806439
:100240008C93938D848D981306C00288F389E02DDA
:1002500080818F7D80830895EF92FF920F931F938B
:10026000CF93DF93EC0181E0888F9B8D8C8D981369
:100270001AC0E889F989808185FF15C09FB7F89475
:10028000EE89FF896083E889F989808183708064C1
:1002900080839FBF81E090E0DF91CF911F910F910C
:1002A000FF90EF900895F62E0B8D10E00F5F1F4F1B
:1002B0000F731127E02E8C8D8E110CC00FB607FC2A
:1002C000FACFE889F989808185FFF5CFCE010E94B8
:1002D0000A01F1CFEB8DEC0FFD2FF11DE35AFF4F1B
:1002E000F0829FB7F8940B8FEA89FB898081806246
:1002F000CFCFCF93DF93EC01888D8823B9F0AA8903
:10030000BB89E889F9898C9185FD03C0808186FDD0
:100310000DC00FB607FCF7CF8C9185FFF2CF80811F
:1003200085FFEDCFCE010E940A01E9CFDF91CF9189
:100330000895833081F028F4813099F08230A9F05B
:1003400008958730A9F08830C9F08430B1F48091E5
:1003500080008F7D03C0809180008F778093800024
:10036000089584B58F7784BD089584B58F7DFBCFC4
:100370008091B0008F778093B00008958091B00095
:100380008F7DF9CFCF93DF93282F30E0F901E2552D
:10039000FF4F8491F901E656FF4FD491F901EA57D6
:1003A000FF4FC491CC23A1F081110E949901EC2F41
:1003B000F0E0EE0FFF1FE458FF4FA591B491EC91D0
:1003C000ED2381E090E009F480E0DF91CF91089582
:1003D00080E090E0FACF1F93CF93DF93282F30E097
:1003E000F901E255FF4F8491F901E656FF4FD49190
:1003F000F901EA57FF4FC491CC23A9F0162F8111C0
:100400000E949901EC2FF0E0EE0FFF1FEE58FF4F16
:10041000A591B4918FB7F894EC91111108C0D095C3
:10042000DE23DC938FBFDF91CF911F910895DE2BE8
:10043000F8CFCF93DF9390E0FC01E656FF4F249175
:100440008A579F4FFC0184918823D1F090E0880F58
:10045000991FFC01E859FF4FA591B491FC01EE589A
:10046000FF4FC591D49161110EC09FB7F8948C9144
:10047000E22FE0958E238C932881E223E8839FBFAF
:10048000DF91CF9108958FB7F894EC91E22BEC9324
:100490008FBFF6CF3FB7F89480918B0190918C017C
:1004A000A0918D01B0918E0126B5A89B05C02F3F6C
:1004B00019F00196A11DB11D3FBFBA2FA92F982F8A
:1004C0008827BC01CD01620F711D811D911D42E085
:1004D000660F771F881F991F4A95D1F708958F924D
:1004E0009F92AF92BF92CF92DF92EF92FF926B01F9
:1004F0007C010E944A024B015C01C114D104E10459
:10050000F104B9F00E944A02681979098A099B0925
:10051000683E73408105910580F321E0C21AD1083D
:10052000E108F10888EE880E83E0981EA11CB11C3A
:10053000E4CFFF90EF90DF90CF90BF90AF909F906F
:100540008F900895FC0101900020E9F73197AF01E9
:10055000481B590BBC0187E991E00C948C008F92E9
:100560009F92AF92BF920F931F93CF93DF93CDB71C
:10057000DEB7A1970FB6F894DEBF0FBECDBF19A2AC
:10058000423008F44AE08E010F5D1F4F842E912CFB
:10059000B12CA12CA50194010E944F06E62FB901B0
:1005A000CA01EA30F4F4E05DD801EE938D01232B0B
:1005B000242B252B79F790E080E0109719F0CD01DE
:1005C0000E94A202A1960FB6F894DEBF0FBECDBF67
:1005D000DF91CF911F910F91BF90AF909F908F901F
:1005E0000895E95CE1CFCF92DF92EF92FF92CF9333
:1005F000DF936B017C016DE287E991E00E942C01A1
:10060000EC0166277727CB016C197D098E099F09BC
:100610004AE00E94AF028C0F9D1FDF91CF91FF90A7
:10062000EF90DF90CF900895EF92FF920F931F937A
:10063000CF93DF93EC017B01FB0101900020E9F7F0
:1006400031978F01061B170B88819981009729F03C
:100650002A813B812017310788F4B8016F5F7F4FF3
:100660000E949C070097B9F0998388831B830A83B3
:100670002C813D81232B11F4FC0110821D830C83FE
:10068000B70188819981DF91CF911F910F91FF90E0
:10069000EF900C94620888819981009711F00E9474
:1006A0001307198218821D821C821B821A82DF9115
:1006B000CF911F910F91FF90EF9008951F920F928D
:1006C0000FB60F9211242F933F934F935F936F9325
:1006D0007F938F939F93AF93BF93EF93FF9387E99C
:1006E00091E00E940A01FF91EF91BF91AF919F911C
:1006F0008F917F916F915F914F913F912F910F90CB
:100700000FBE0F901F9018951F920F920FB60F9269
:1007100011242F938F939F93EF93FF93E091A70161
:10072000F091A8018081E091AD01F091AE0182FDD0
:100730001BC090818091B0018F5F8F732091B101B8
:10074000821741F0E091B001F0E0E956FE4F958F3D
:100750008093B001FF91EF919F918F912F910F9016
:100760000FBE0F901F9018958081F4CF1F920F92AB
:100770000FB60F9211242F933F938F939F93AF93B4
:10078000BF9380918F0190919001A0919101B091C0
:10079000920130918A0123E0230F2D3758F50196FD
:1007A000A11DB11D20938A0180938F019093900128
:1007B000A0939101B093920180918B0190918C0153
:1007C000A0918D01B0918E010196A11DB11D809364
:1007D0008B0190938C01A0938D01B0938E01BF91FA
:1007E000AF919F918F913F912F910F900FBE0F90DE
:1007F0001F90189526E8230F0296A11DB11DD2CF98
:10080000CF93DF93E7E9F1E01382128288EE93E061
:10081000A0E0B0E084839583A683B7838AE091E06B
:100820009183808385EC90E09587848784EC90E0C9
:100830009787868780EC90E0918B808B81EC90E0AD
:10084000938B828B82EC90E0958B848B86EC90E08E
:10085000978B868B118E128E138E148EC4E3D2E08A
:1008600082E090E09983888384EF91E0A0E0B0E09B
:100870008A839B83AC83BD8361E082E00E9419027E
:1008800061E08881DF91CF910C94EB01CF93DF93EE
:1008900000D000D000D0CDB7DEB7789484B58260A8
:1008A00084BD84B5816084BD85B5826085BD85B514
:1008B000816085BD80916E00816080936E00109292
:1008C000810080918100826080938100809181000D
:1008D000816080938100809180008160809380009E
:1008E0008091B10084608093B1008091B0008160FC
:1008F0008093B00080917A00846080937A00809128
:100900007A00826080937A0080917A00816080937F
:100910007A0080917A00806880937A001092C100FA
:10092000E091A701F091A80182E08083E091A3010A
:10093000F091A4011082E091A501F091A6018FEC45
:1009400080831092AF01E091AB01F091AC0186E0A1
:100950008083E091A901F091AA0180818061808368
:10096000E091A901F091AA01808188608083E091E3
:10097000A901F091AA01808180688083E091A9019A
:10098000F091AA0180818F7D808380EE93E9A4E0BD
:10099000B0E08093360290933702A0933802B09370
:1009A00039029BE9292E312C2BE3A22EBB24B394D0
:1009B0002E0126E0420E511C33E7632E712C60910C
:1009C00036027091370280913802909139020E946C
:1009D0006F0261E0809134020E94190260E0809110
:1009E00034020E94EB0162E170E080E090E00E943E
:1009F0006F0261E0809134020E94EB01C101019716
:100A0000F1F760E0809134020E9419028FB7F894E8
:100A1000C0908F01D0909001E0909101F0909201F0
:100A20008FBF809134020E94C201019709F05AC021
:100A30002FB7F89480918F0190919001A09191012E
:100A4000B09192012FBF8C199D09AE09BF09893E53
:100A50009340A105B10528F30DEF10E060EE73E9B6
:100A600084E090E00E946F020115110509F0A8C012
:100A70004091950150919601443651050CF0A6C065
:100A80002091930130919401243631050CF09EC0E1
:100A9000BA01052E000C880B990B57FF89C00E94E4
:100AA000F30288E191E00E94A202609193017091AB
:100AB0009401072E000C880B990B97FF7DC00E94B4
:100AC000F3028AE191E00E94A20280E090E0892B8B
:100AD00009F475CF0E94F600882309F470CF0E94B4
:100AE00000006DCF809134020E94C2018C01892BDD
:100AF00009F0B2CFC5010197F1F7809134020E944D
:100B0000C201019709F0A8CFC5010197F1F7CE0105
:100B100001966C0187E0E82EF12C912C8091340233
:100B20000E94C201892BD1F3C3010197F1F7809193
:100B300034020E94C2018130910531F40E2C01C0B3
:100B4000880F0A94EAF7982A809134020E94C20121
:100B50000197D1F391E0E91AF10800F7F6019192BB
:100B60006F01FDEF9F1609F477CF4C145D0491F6E9
:100B7000498150E02B8130E0ED818A81840F952FEF
:100B8000911DBC01620F731F8C81860F972F911DE1
:100B90009927E817190649F450939401409393015B
:100BA000309396012093950159CF0EEF10E056CF68
:100BB0004AE00E94AF0275CF4AE00E94AF0281CFA7
:100BC0000D3F110561F00E3F110549F11A8219829E
:100BD0001C821B821E821D826BE771E008C01A8294
:100BE00019821C821B821E821D826DE171E0CE0182
:100BF00001960E9414034D815E8169817A8187E9A3
:100C000091E00E948C008AE191E00E94A202898119
:100C10009A81009709F459CF0E94130756CF1A8280
:100C200019821C821B821E821D8265E471E0DFCF67
:100C30002F923F924F925F926F927F928F929F92EC
:100C4000AF92BF92CF92DF92EF92FF920F931F93DA
:100C5000CF93DF93CDB7DEB7CA1BDB0B0FB6F8948B
:100C6000DEBF0FBECDBF09942A88398848885F84CB
:100C70006E847D848C849B84AA84B984C884DF803C
:100C8000EE80FD800C811B81AA81B981CE0FD11D20
:100C90000FB6F894DEBF0FBECDBFED010895A1E2FF
:100CA0001A2EAA1BBB1BFD010DC0AA1FBB1FEE1FE6
:100CB000FF1FA217B307E407F50720F0A21BB30B31
:100CC000E40BF50B661F771F881F991F1A9469F7AD
:100CD00060957095809590959B01AC01BD01CF0109
:100CE0000895EE0FFF1F0590F491E02D09940F93E6
:100CF0001F93CF93DF938230910510F482E090E050
:100D0000E0913C02F0913D0230E020E0B0E0A0E054
:100D1000309799F42115310509F44AC0281B390B85
:100D200024303105D8F58A819B816115710589F1DF
:100D3000FB0193838283FE0111C0408151810281B6
:100D4000138148175907E0F04817590799F410978D
:100D500061F012960C93129713961C933296CF0162
:100D6000DF91CF911F910F91089500933C02109352
:100D70003D02F4CF2115310551F04217530738F0E9
:100D8000A901DB019A01BD01DF01F801C1CFEF012B
:100D9000F9CF90933D0280933C02CDCFFE01E20F4C
:100DA000F31F819391932250310939832883D7CF40
:100DB00020913A0230913B02232B41F42091020111
:100DC0003091030130933B0220933A0220910001BD
:100DD000309101012115310541F42DB73EB7409105
:100DE000040150910501241B350BE0913A02F0916A
:100DF0003B02E217F307A0F42E1B3F0B281739071D
:100E000078F0AC014E5F5F4F2417350748F04E0F66
:100E10005F1F50933B0240933A02819391939FCF7F
:100E2000F0E0E0E09CCFCF93DF930097E9F0FC0186
:100E3000329713821282A0913C02B0913D02ED01E3
:100E400030E020E01097A1F420813181820F931FC0
:100E500020913A0230913B022817390709F061C00E
:100E6000F0933B02E0933A02DF91CF910895EA01BB
:100E7000CE17DF07E8F54A815B819E0141155105D8
:100E8000B1F7E901FB83EA8349915991C40FD51F5A
:100E9000EC17FD0761F4808191810296840F951F04
:100EA000E90199838883828193819B838A83F0E01F
:100EB000E0E012968D919C9113970097B9F52D91D2
:100EC0003C911197CD010296820F931F20913A0217
:100ED00030913B022817390739F6309751F51092B7
:100EE0003D0210923C02B0933B02A0933A02BCCF69
:100EF000D383C28340815181840F951FC817D907BE
:100F000061F44E5F5F4F88819981480F591F51836B
:100F100040838A819B81938382832115310509F067
:100F2000B0CFF0933D02E0933C029ECFFD01DC0187
:100F3000C0CF13821282D7CFB0E0A0E0E2EAF7E0A0
:100F40000C941A068C01009751F4CB010E9477068D
:100F50008C01C801CDB7DEB7E0E10C943606FC0188
:100F6000E60FF71F9C0122503109E217F30708F43E
:100F70009DC0D901CD91DC911197C617D70798F084
:100F8000C530D10530F3CE0104978617970708F3D3
:100F9000C61BD70B2297C193D1936D937C93CF013E
:100FA0000E941307D6CF5B01AC1ABD0A4C018C0E10
:100FB0009D1EA0913C02B0913D02512C412CF12C80
:100FC000E12C109731F580913A0290913B028815FF
:100FD000990509F05CC04616570608F058C0809184
:100FE000000190910101009741F48DB79EB74091A7
:100FF000040150910501841B950BE817F90708F0CF
:1010000055C0F0933B02E0933A02F901718360838B
:10101000A0CF8D919C91119712966C901297139678
:101020007C901397A815B90559F56C0142E0C40EE0
:10103000D11CCA14DB0420F1AC014A195B09DA01A6
:101040001296159780F06282738251834083D90192
:101050006D937C93E114F10471F0D7011396FC9326
:10106000EE93129776CF22968C0F9D1FF9019183F4
:101070008083F301EFCFF0933D02E0933C0269CF10
:101080004816590608F42C017D01D3019ACFCB01F3
:101090000E9477067C01009749F0AE01B8010E94DA
:1010A0005908C8010E941307870153CF10E000E0E0
:1010B00050CFFB01DC0102C001900D924150504025
:1010C000D8F70895FB01DC0101900D920020E1F7B3
:0610D0000895F894FFCF23
:1010D60000003E028000000000002C018C00B900D8
:1010E6007901EA00C800DC002C000D0A0045727286
:1010F6006F72203235332052656164696E672066EF
:10110600726F6D2044485431312074696D656420D6
:101116006F75742E004572726F722032353420431B
:101126006865636B73756D206D69736D6174636853
:10113600207768696C652072656164696E672066F0
:10114600726F6D2044485431312E004572726F72B1
:0A11560020556E6B6E6F776E2E0051
:00000001FF
